{"abi":[{"type":"constructor","inputs":[{"name":"v2Router","type":"address","internalType":"address"},{"name":"v3Router","type":"address","internalType":"address"},{"name":"v3Quoter","type":"address","internalType":"address"},{"name":"defaultFeeBps","type":"uint16","internalType":"uint16"},{"name":"feeBeneficiary","type":"address","internalType":"address"},{"name":"slippageTolerance","type":"uint16","internalType":"uint16"},{"name":"admin","type":"address","internalType":"address"},{"name":"emergencyAdmin","type":"address","internalType":"address"},{"name":"referralPercentage","type":"uint8","internalType":"uint8"}],"stateMutability":"nonpayable"},{"type":"receive","stateMutability":"payable"},{"type":"function","name":"DEFAULT_ADMIN_ROLE","inputs":[],"outputs":[{"name":"","type":"bytes32","internalType":"bytes32"}],"stateMutability":"view"},{"type":"function","name":"EMERGENCY_ADMIN_ROLE","inputs":[],"outputs":[{"name":"","type":"bytes32","internalType":"bytes32"}],"stateMutability":"view"},{"type":"function","name":"FEE_DENOMINATOR","inputs":[],"outputs":[{"name":"","type":"uint16","internalType":"uint16"}],"stateMutability":"view"},{"type":"function","name":"FEE_MANAGER_ROLE","inputs":[],"outputs":[{"name":"","type":"bytes32","internalType":"bytes32"}],"stateMutability":"view"},{"type":"function","name":"MAX_FEE_BPS","inputs":[],"outputs":[{"name":"","type":"uint16","internalType":"uint16"}],"stateMutability":"view"},{"type":"function","name":"MAX_SLIPPAGE_TOLERANCE","inputs":[],"outputs":[{"name":"","type":"uint16","internalType":"uint16"}],"stateMutability":"view"},{"type":"function","name":"PAUSER_ROLE","inputs":[],"outputs":[{"name":"","type":"bytes32","internalType":"bytes32"}],"stateMutability":"view"},{"type":"function","name":"PROTOCOL_TYPE_V2","inputs":[],"outputs":[{"name":"","type":"uint8","internalType":"uint8"}],"stateMutability":"view"},{"type":"function","name":"PROTOCOL_TYPE_V3","inputs":[],"outputs":[{"name":"","type":"uint8","internalType":"uint8"}],"stateMutability":"view"},{"type":"function","name":"PROTOCOL_TYPE_V3_MULTI","inputs":[],"outputs":[{"name":"","type":"uint8","internalType":"uint8"}],"stateMutability":"view"},{"type":"function","name":"WETH","inputs":[],"outputs":[{"name":"","type":"address","internalType":"address"}],"stateMutability":"view"},{"type":"function","name":"activateEmergency","inputs":[{"name":"reason","type":"string","internalType":"string"}],"outputs":[],"stateMutability":"nonpayable"},{"type":"function","name":"convertTokenToETH","inputs":[{"name":"token","type":"address","internalType":"address"},{"name":"amount","type":"uint256","internalType":"uint256"}],"outputs":[{"name":"ethReceived","type":"uint256","internalType":"uint256"}],"stateMutability":"nonpayable"},{"type":"function","name":"deactivateEmergency","inputs":[],"outputs":[],"stateMutability":"nonpayable"},{"type":"function","name":"emergencyRecoverStuckTokens","inputs":[{"name":"token","type":"address","internalType":"address"},{"name":"recipient","type":"address","internalType":"address"}],"outputs":[],"stateMutability":"nonpayable"},{"type":"function","name":"encodePath","inputs":[{"name":"tokens","type":"address[]","internalType":"address[]"},{"name":"fees","type":"uint24[]","internalType":"uint24[]"}],"outputs":[{"name":"","type":"bytes","internalType":"bytes"}],"stateMutability":"pure"},{"type":"function","name":"getFeeSettings","inputs":[],"outputs":[{"name":"defaultFeeBps","type":"uint16","internalType":"uint16"},{"name":"feesEnabled","type":"bool","internalType":"bool"},{"name":"feeBeneficiary","type":"address","internalType":"address"},{"name":"slippageTolerance","type":"uint16","internalType":"uint16"},{"name":"referralPercentage","type":"uint8","internalType":"uint8"}],"stateMutability":"view"},{"type":"function","name":"getReferralPercentage","inputs":[],"outputs":[{"name":"","type":"uint8","internalType":"uint8"}],"stateMutability":"view"},{"type":"function","name":"getReferrerStats","inputs":[{"name":"referrer","type":"address","internalType":"address"}],"outputs":[{"name":"totalVolume","type":"uint256","internalType":"uint256"},{"name":"totalEarnings","type":"uint256","internalType":"uint256"}],"stateMutability":"view"},{"type":"function","name":"getRoleAdmin","inputs":[{"name":"role","type":"bytes32","internalType":"bytes32"}],"outputs":[{"name":"","type":"bytes32","internalType":"bytes32"}],"stateMutability":"view"},{"type":"function","name":"getSlippageToleranceForToken","inputs":[{"name":"token","type":"address","internalType":"address"}],"outputs":[{"name":"","type":"uint16","internalType":"uint16"}],"stateMutability":"view"},{"type":"function","name":"getUserFirstReferrer","inputs":[{"name":"user","type":"address","internalType":"address"}],"outputs":[{"name":"","type":"address","internalType":"address"}],"stateMutability":"view"},{"type":"function","name":"grantRole","inputs":[{"name":"role","type":"bytes32","internalType":"bytes32"},{"name":"account","type":"address","internalType":"address"}],"outputs":[],"stateMutability":"nonpayable"},{"type":"function","name":"hasRole","inputs":[{"name":"role","type":"bytes32","internalType":"bytes32"},{"name":"account","type":"address","internalType":"address"}],"outputs":[{"name":"","type":"bool","internalType":"bool"}],"stateMutability":"view"},{"type":"function","name":"isEmergencyActive","inputs":[],"outputs":[{"name":"","type":"bool","internalType":"bool"}],"stateMutability":"view"},{"type":"function","name":"isEmergencyState","inputs":[],"outputs":[{"name":"","type":"bool","internalType":"bool"}],"stateMutability":"view"},{"type":"function","name":"isPaused","inputs":[],"outputs":[{"name":"","type":"bool","internalType":"bool"}],"stateMutability":"view"},{"type":"function","name":"pauseRouter","inputs":[{"name":"reason","type":"string","internalType":"string"}],"outputs":[],"stateMutability":"nonpayable"},{"type":"function","name":"paused","inputs":[],"outputs":[{"name":"","type":"bool","internalType":"bool"}],"stateMutability":"view"},{"type":"function","name":"referrerTotalEarnings","inputs":[{"name":"","type":"address","internalType":"address"}],"outputs":[{"name":"","type":"uint256","internalType":"uint256"}],"stateMutability":"view"},{"type":"function","name":"referrerTotalVolume","inputs":[{"name":"","type":"address","internalType":"address"}],"outputs":[{"name":"","type":"uint256","internalType":"uint256"}],"stateMutability":"view"},{"type":"function","name":"renounceRole","inputs":[{"name":"role","type":"bytes32","internalType":"bytes32"},{"name":"callerConfirmation","type":"address","internalType":"address"}],"outputs":[],"stateMutability":"nonpayable"},{"type":"function","name":"revokeRole","inputs":[{"name":"role","type":"bytes32","internalType":"bytes32"},{"name":"account","type":"address","internalType":"address"}],"outputs":[],"stateMutability":"nonpayable"},{"type":"function","name":"setDefaultFeeBps","inputs":[{"name":"newFeeBps","type":"uint16","internalType":"uint16"}],"outputs":[],"stateMutability":"nonpayable"},{"type":"function","name":"setFeeBeneficiary","inputs":[{"name":"newBeneficiary","type":"address","internalType":"address"}],"outputs":[],"stateMutability":"nonpayable"},{"type":"function","name":"setFeesEnabled","inputs":[{"name":"enabled","type":"bool","internalType":"bool"}],"outputs":[],"stateMutability":"nonpayable"},{"type":"function","name":"setReferralPercentage","inputs":[{"name":"newPercentage","type":"uint8","internalType":"uint8"}],"outputs":[],"stateMutability":"nonpayable"},{"type":"function","name":"setSlippageTolerance","inputs":[{"name":"newTolerance","type":"uint16","internalType":"uint16"}],"outputs":[],"stateMutability":"nonpayable"},{"type":"function","name":"setTokenSlippageTolerance","inputs":[{"name":"token","type":"address","internalType":"address"},{"name":"tolerance","type":"uint16","internalType":"uint16"}],"outputs":[],"stateMutability":"nonpayable"},{"type":"function","name":"supportsInterface","inputs":[{"name":"interfaceId","type":"bytes4","internalType":"bytes4"}],"outputs":[{"name":"","type":"bool","internalType":"bool"}],"stateMutability":"view"},{"type":"function","name":"swapETHForExactTokensV2","inputs":[{"name":"amountOut","type":"uint256","internalType":"uint256"},{"name":"path","type":"address[]","internalType":"address[]"},{"name":"deadline","type":"uint256","internalType":"uint256"},{"name":"dynamicFeeBps","type":"uint16","internalType":"uint16"},{"name":"referrer","type":"address","internalType":"address"}],"outputs":[{"name":"amounts","type":"uint256[]","internalType":"uint256[]"}],"stateMutability":"payable"},{"type":"function","name":"swapExactETHForTokensV2","inputs":[{"name":"amountOutMin","type":"uint256","internalType":"uint256"},{"name":"path","type":"address[]","internalType":"address[]"},{"name":"deadline","type":"uint256","internalType":"uint256"},{"name":"dynamicFeeBps","type":"uint16","internalType":"uint16"},{"name":"referrer","type":"address","internalType":"address"}],"outputs":[{"name":"amounts","type":"uint256[]","internalType":"uint256[]"}],"stateMutability":"payable"},{"type":"function","name":"swapExactETHForTokensV2WithTax","inputs":[{"name":"amountOutMin","type":"uint256","internalType":"uint256"},{"name":"path","type":"address[]","internalType":"address[]"},{"name":"deadline","type":"uint256","internalType":"uint256"},{"name":"dynamicFeeBps","type":"uint16","internalType":"uint16"},{"name":"taxAdjustment","type":"uint16","internalType":"uint16"},{"name":"referrer","type":"address","internalType":"address"}],"outputs":[{"name":"amountOut","type":"uint256","internalType":"uint256"}],"stateMutability":"payable"},{"type":"function","name":"swapExactTokensForETHV2","inputs":[{"name":"amountIn","type":"uint256","internalType":"uint256"},{"name":"amountOutMin","type":"uint256","internalType":"uint256"},{"name":"path","type":"address[]","internalType":"address[]"},{"name":"deadline","type":"uint256","internalType":"uint256"},{"name":"dynamicFeeBps","type":"uint16","internalType":"uint16"},{"name":"referrer","type":"address","internalType":"address"}],"outputs":[{"name":"amounts","type":"uint256[]","internalType":"uint256[]"}],"stateMutability":"nonpayable"},{"type":"function","name":"swapExactTokensForETHV2WithTax","inputs":[{"name":"amountIn","type":"uint256","internalType":"uint256"},{"name":"amountOutMin","type":"uint256","internalType":"uint256"},{"name":"path","type":"address[]","internalType":"address[]"},{"name":"deadline","type":"uint256","internalType":"uint256"},{"name":"dynamicFeeBps","type":"uint16","internalType":"uint16"},{"name":"taxAdjustment","type":"uint16","internalType":"uint16"},{"name":"referrer","type":"address","internalType":"address"}],"outputs":[{"name":"amountOut","type":"uint256","internalType":"uint256"}],"stateMutability":"nonpayable"},{"type":"function","name":"swapExactTokensForTokensV2","inputs":[{"name":"tokenIn","type":"address","internalType":"address"},{"name":"tokenOut","type":"address","internalType":"address"},{"name":"amountIn","type":"uint256","internalType":"uint256"},{"name":"amountOutMin","type":"uint256","internalType":"uint256"},{"name":"deadline","type":"uint256","internalType":"uint256"},{"name":"dynamicFeeBps","type":"uint16","internalType":"uint16"},{"name":"referrer","type":"address","internalType":"address"}],"outputs":[{"name":"amountOut","type":"uint256","internalType":"uint256"}],"stateMutability":"nonpayable"},{"type":"function","name":"swapExactTokensForTokensV2WithTax","inputs":[{"name":"tokenIn","type":"address","internalType":"address"},{"name":"tokenOut","type":"address","internalType":"address"},{"name":"amountIn","type":"uint256","internalType":"uint256"},{"name":"amountOutMin","type":"uint256","internalType":"uint256"},{"name":"deadline","type":"uint256","internalType":"uint256"},{"name":"dynamicFeeBps","type":"uint16","internalType":"uint16"},{"name":"taxAdjustment","type":"uint16","internalType":"uint16"},{"name":"referrer","type":"address","internalType":"address"}],"outputs":[{"name":"amountOut","type":"uint256","internalType":"uint256"}],"stateMutability":"nonpayable"},{"type":"function","name":"swapExactTokensForTokensV3","inputs":[{"name":"tokenIn","type":"address","internalType":"address"},{"name":"tokenOut","type":"address","internalType":"address"},{"name":"amountIn","type":"uint256","internalType":"uint256"},{"name":"amountOutMin","type":"uint256","internalType":"uint256"},{"name":"deadline","type":"uint256","internalType":"uint256"},{"name":"feeTier","type":"uint24","internalType":"uint24"},{"name":"dynamicFeeBps","type":"uint16","internalType":"uint16"},{"name":"referrer","type":"address","internalType":"address"}],"outputs":[{"name":"amountOut","type":"uint256","internalType":"uint256"}],"stateMutability":"nonpayable"},{"type":"function","name":"swapExactTokensForTokensV3MultiHop","inputs":[{"name":"path","type":"bytes","internalType":"bytes"},{"name":"amountIn","type":"uint256","internalType":"uint256"},{"name":"amountOutMin","type":"uint256","internalType":"uint256"},{"name":"deadline","type":"uint256","internalType":"uint256"},{"name":"dynamicFeeBps","type":"uint16","internalType":"uint16"},{"name":"referrer","type":"address","internalType":"address"}],"outputs":[{"name":"amountOut","type":"uint256","internalType":"uint256"}],"stateMutability":"nonpayable"},{"type":"function","name":"swapTokensForExactETHV2","inputs":[{"name":"amountOut","type":"uint256","internalType":"uint256"},{"name":"amountInMax","type":"uint256","internalType":"uint256"},{"name":"path","type":"address[]","internalType":"address[]"},{"name":"deadline","type":"uint256","internalType":"uint256"},{"name":"dynamicFeeBps","type":"uint16","internalType":"uint16"},{"name":"referrer","type":"address","internalType":"address"}],"outputs":[{"name":"amounts","type":"uint256[]","internalType":"uint256[]"}],"stateMutability":"nonpayable"},{"type":"function","name":"toggleEmergency","inputs":[],"outputs":[],"stateMutability":"nonpayable"},{"type":"function","name":"tokenSlippageTolerance","inputs":[{"name":"","type":"address","internalType":"address"}],"outputs":[{"name":"","type":"uint16","internalType":"uint16"}],"stateMutability":"view"},{"type":"function","name":"totalFeesCollectedLifetime","inputs":[],"outputs":[{"name":"","type":"uint256","internalType":"uint256"}],"stateMutability":"view"},{"type":"function","name":"totalFeesDistributedLifetime","inputs":[],"outputs":[{"name":"","type":"uint256","internalType":"uint256"}],"stateMutability":"view"},{"type":"function","name":"totalReferralFeesDistributedLifetime","inputs":[],"outputs":[{"name":"","type":"uint256","internalType":"uint256"}],"stateMutability":"view"},{"type":"function","name":"totalReferredTransactions","inputs":[],"outputs":[{"name":"","type":"uint256","internalType":"uint256"}],"stateMutability":"view"},{"type":"function","name":"uniswapV2Router","inputs":[],"outputs":[{"name":"","type":"address","internalType":"contract IUniswapV2Router02"}],"stateMutability":"view"},{"type":"function","name":"uniswapV3Quoter","inputs":[],"outputs":[{"name":"","type":"address","internalType":"contract IQuoter"}],"stateMutability":"view"},{"type":"function","name":"uniswapV3Router","inputs":[],"outputs":[{"name":"","type":"address","internalType":"contract ISwapRouter"}],"stateMutability":"view"},{"type":"function","name":"unpauseRouter","inputs":[],"outputs":[],"stateMutability":"nonpayable"},{"type":"function","name":"userFirstReferrer","inputs":[{"name":"","type":"address","internalType":"address"}],"outputs":[{"name":"","type":"address","internalType":"address"}],"stateMutability":"view"},{"type":"event","name":"EmergencyActivated","inputs":[{"name":"reason","type":"string","indexed":false,"internalType":"string"}],"anonymous":false},{"type":"event","name":"EmergencyFundsRecovered","inputs":[{"name":"token","type":"address","indexed":true,"internalType":"address"},{"name":"amount","type":"uint256","indexed":false,"internalType":"uint256"},{"name":"recipient","type":"address","indexed":true,"internalType":"address"}],"anonymous":false},{"type":"event","name":"EmergencyRecoveryCompleted","inputs":[],"anonymous":false},{"type":"event","name":"EmergencyStateChanged","inputs":[{"name":"oldState","type":"bool","indexed":false,"internalType":"bool"},{"name":"newState","type":"bool","indexed":false,"internalType":"bool"},{"name":"triggeredBy","type":"address","indexed":true,"internalType":"address"}],"anonymous":false},{"type":"event","name":"FeeBeneficiaryUpdated","inputs":[{"name":"oldBeneficiary","type":"address","indexed":false,"internalType":"address"},{"name":"newBeneficiary","type":"address","indexed":false,"internalType":"address"}],"anonymous":false},{"type":"event","name":"FeeConversionFailed","inputs":[{"name":"token","type":"address","indexed":false,"internalType":"address"},{"name":"amount","type":"uint256","indexed":false,"internalType":"uint256"},{"name":"reason","type":"string","indexed":false,"internalType":"string"}],"anonymous":false},{"type":"event","name":"FeeDistributed","inputs":[{"name":"user","type":"address","indexed":true,"internalType":"address"},{"name":"token","type":"address","indexed":true,"internalType":"address"},{"name":"tokenAmount","type":"uint256","indexed":false,"internalType":"uint256"},{"name":"ethAmount","type":"uint256","indexed":false,"internalType":"uint256"},{"name":"referrer","type":"address","indexed":true,"internalType":"address"},{"name":"referrerAmount","type":"uint256","indexed":false,"internalType":"uint256"},{"name":"beneficiaryAmount","type":"uint256","indexed":false,"internalType":"uint256"},{"name":"timestamp","type":"uint256","indexed":false,"internalType":"uint256"}],"anonymous":false},{"type":"event","name":"FeeUpdated","inputs":[{"name":"oldFeeBps","type":"uint16","indexed":false,"internalType":"uint16"},{"name":"newFeeBps","type":"uint16","indexed":false,"internalType":"uint16"}],"anonymous":false},{"type":"event","name":"FeesEnabledUpdated","inputs":[{"name":"enabled","type":"bool","indexed":false,"internalType":"bool"}],"anonymous":false},{"type":"event","name":"Paused","inputs":[{"name":"account","type":"address","indexed":false,"internalType":"address"}],"anonymous":false},{"type":"event","name":"ReferralPaymentFailed","inputs":[{"name":"referrer","type":"address","indexed":true,"internalType":"address"},{"name":"amount","type":"uint256","indexed":false,"internalType":"uint256"}],"anonymous":false},{"type":"event","name":"ReferralPercentageUpdated","inputs":[{"name":"oldPercentage","type":"uint8","indexed":false,"internalType":"uint8"},{"name":"newPercentage","type":"uint8","indexed":false,"internalType":"uint8"}],"anonymous":false},{"type":"event","name":"RoleAdminChanged","inputs":[{"name":"role","type":"bytes32","indexed":true,"internalType":"bytes32"},{"name":"previousAdminRole","type":"bytes32","indexed":true,"internalType":"bytes32"},{"name":"newAdminRole","type":"bytes32","indexed":true,"internalType":"bytes32"}],"anonymous":false},{"type":"event","name":"RoleGranted","inputs":[{"name":"role","type":"bytes32","indexed":true,"internalType":"bytes32"},{"name":"account","type":"address","indexed":true,"internalType":"address"},{"name":"sender","type":"address","indexed":true,"internalType":"address"}],"anonymous":false},{"type":"event","name":"RoleRevoked","inputs":[{"name":"role","type":"bytes32","indexed":true,"internalType":"bytes32"},{"name":"account","type":"address","indexed":true,"internalType":"address"},{"name":"sender","type":"address","indexed":true,"internalType":"address"}],"anonymous":false},{"type":"event","name":"RouterPaused","inputs":[{"name":"account","type":"address","indexed":true,"internalType":"address"},{"name":"reason","type":"string","indexed":false,"internalType":"string"}],"anonymous":false},{"type":"event","name":"RouterUnpaused","inputs":[{"name":"account","type":"address","indexed":true,"internalType":"address"}],"anonymous":false},{"type":"event","name":"SlippageToleranceUpdated","inputs":[{"name":"oldTolerance","type":"uint16","indexed":false,"internalType":"uint16"},{"name":"newTolerance","type":"uint16","indexed":false,"internalType":"uint16"}],"anonymous":false},{"type":"event","name":"SwapExecuted","inputs":[{"name":"user","type":"address","indexed":true,"internalType":"address"},{"name":"tokenIn","type":"address","indexed":true,"internalType":"address"},{"name":"tokenOut","type":"address","indexed":true,"internalType":"address"},{"name":"amountIn","type":"uint256","indexed":false,"internalType":"uint256"},{"name":"amountOut","type":"uint256","indexed":false,"internalType":"uint256"},{"name":"feeAmount","type":"uint256","indexed":false,"internalType":"uint256"},{"name":"feeBps","type":"uint16","indexed":false,"internalType":"uint16"},{"name":"protocolType","type":"uint8","indexed":false,"internalType":"uint8"},{"name":"referrer","type":"address","indexed":false,"internalType":"address"},{"name":"timestamp","type":"uint256","indexed":false,"internalType":"uint256"}],"anonymous":false},{"type":"event","name":"SwapExecutedWithTax","inputs":[{"name":"user","type":"address","indexed":true,"internalType":"address"},{"name":"tokenIn","type":"address","indexed":true,"internalType":"address"},{"name":"tokenOut","type":"address","indexed":true,"internalType":"address"},{"name":"amountInSent","type":"uint256","indexed":false,"internalType":"uint256"},{"name":"amountInReceived","type":"uint256","indexed":false,"internalType":"uint256"},{"name":"amountOut","type":"uint256","indexed":false,"internalType":"uint256"},{"name":"feeAmount","type":"uint256","indexed":false,"internalType":"uint256"},{"name":"feeBps","type":"uint16","indexed":false,"internalType":"uint16"},{"name":"taxAdjustment","type":"uint16","indexed":false,"internalType":"uint16"},{"name":"referrer","type":"address","indexed":false,"internalType":"address"},{"name":"timestamp","type":"uint256","indexed":false,"internalType":"uint256"}],"anonymous":false},{"type":"event","name":"TokenSlippageToleranceUpdated","inputs":[{"name":"token","type":"address","indexed":false,"internalType":"address"},{"name":"tolerance","type":"uint16","indexed":false,"internalType":"uint16"}],"anonymous":false},{"type":"event","name":"Unpaused","inputs":[{"name":"account","type":"address","indexed":false,"internalType":"address"}],"anonymous":false},{"type":"event","name":"UserReferred","inputs":[{"name":"user","type":"address","indexed":true,"internalType":"address"},{"name":"referrer","type":"address","indexed":true,"internalType":"address"},{"name":"timestamp","type":"uint256","indexed":false,"internalType":"uint256"}],"anonymous":false},{"type":"error","name":"AccessControlBadConfirmation","inputs":[]},{"type":"error","name":"AccessControlUnauthorizedAccount","inputs":[{"name":"account","type":"address","internalType":"address"},{"name":"neededRole","type":"bytes32","internalType":"bytes32"}]},{"type":"error","name":"DeadlineExpired","inputs":[]},{"type":"error","name":"ETHTransferFailed","inputs":[]},{"type":"error","name":"EnforcedPause","inputs":[]},{"type":"error","name":"ExpectedPause","inputs":[]},{"type":"error","name":"FeeTooHigh","inputs":[{"name":"providedFee","type":"uint16","internalType":"uint16"},{"name":"maxFee","type":"uint16","internalType":"uint16"}]},{"type":"error","name":"FeesLengthMismatch","inputs":[]},{"type":"error","name":"InsufficientAmount","inputs":[]},{"type":"error","name":"InsufficientOutputAmount","inputs":[]},{"type":"error","name":"InvalidFeeTier","inputs":[]},{"type":"error","name":"InvalidPath","inputs":[]},{"type":"error","name":"InvalidReferrerAddress","inputs":[]},{"type":"error","name":"NotInEmergencyState","inputs":[]},{"type":"error","name":"PathTooShort","inputs":[]},{"type":"error","name":"ReentrancyGuardReentrantCall","inputs":[]},{"type":"error","name":"SafeERC20FailedOperation","inputs":[{"name":"token","type":"address","internalType":"address"}]},{"type":"error","name":"SelfReferralNotAllowed","inputs":[]},{"type":"error","name":"SlippageToleranceTooHigh","inputs":[{"name":"provided","type":"uint16","internalType":"uint16"},{"name":"maximum","type":"uint16","internalType":"uint16"}]},{"type":"error","name":"ZeroAddressNotAllowed","inputs":[]}],"bytecode":{"object":"0x610100604090808252346200048557610120816200535d80380380916200002782856200053c565b83398101031262000485576200003d8162000574565b6020906200004d82840162000574565b906200005b85850162000574565b620000696060860162000589565b620000776080870162000574565b936200008660a0880162000589565b926200009560c0890162000574565b92610100620000a760e08b0162000574565b9901519260ff841697888503620004855760015f556002805460ff191690556001600160a01b039788169182156200052b5788169384156200052b5788169081156200052b5788169384156200052b57888716998a156200051a5761ffff809516946101f4808711620004fc575089166103e8808211620004df5750506064106200049b57608083905260a05260c0528a516315ab88c960e31b8152908990829060049082905afa90811562000491575f9162000443575b50620001db956401000000009160e05263ffff000065ff0000000000199364ffffffffff1960035416179160101b161717166003556004549160ff60a01b9060a01b169160018060a81b0319161717600455620001bc8162000599565b50620001c88162000609565b50620001d481620006aa565b5062000745565b50831690811515918262000437575b505062000360575b8251614b2e9081620007cf82396080518181816107dd01528181610e0f015281816114f701528181611a4b01528181611cba01528181611d0a01528181612425015281816128be0152818161298c0152818161326d015261381e015260a05181818161047a015281816110930152818161113301528181612e4a01528181612f4f01528181613595015261433b015260c05181818161049c0152818161217f015261435c015260e0518181816104be01528181610687015281816108c301528181610d53015281816112bc015281816113ec0152818161142f01528181611474015281816115270152818161160d01528181611683015281816116cf0152818161171101528181611bec015281816127c90152818161281001528181612853015281816128e801528181612928015281816129e101528181612ab701528181612ae401528181612b3001528181612b9901528181612be401528181612c2a015281816131cb015261437d0152f35b7f5358bcfd81d1ef3da152b1755e1c3c6739686fa7e83dbcad0071568cc4b73a635f52600181526001835f200154805f52835f20335f52825260ff845f205416156200041a5750620003b282620006aa565b505f805160206200533d8339815191525f52600181526001835f20015490815f52835f2090335f525260ff835f20541615620003fd5750620003f49062000745565b505f80620001f2565b60449083519063e2517d3f60e01b82523360048301526024820152fd5b60449084519063e2517d3f60e01b82523360048301526024820152fd5b141590505f80620001ea565b90508881813d831162000489575b6200045d81836200053c565b810103126200048557620001db956200047c6401000000009262000574565b9150956200015f565b5f80fd5b503d62000451565b8b513d5f823e3d90fd5b8c5162461bcd60e51b8152600481018c9052601c60248201527f50657263656e746167652063616e6e6f742065786365656420313030000000006044820152606490fd5b8f60449350519163248c90a560e21b835260048301526024820152fd5b8f60449188915191633c057d7b60e01b835260048301526024820152fd5b8d516342bcdf7f60e11b8152600490fd5b8c516342bcdf7f60e11b8152600490fd5b601f909101601f19168101906001600160401b038211908210176200056057604052565b634e487b7160e01b5f52604160045260245ffd5b51906001600160a01b03821682036200048557565b519061ffff821682036200048557565b6001600160a01b03165f8181525f805160206200531d833981519152602052604090205460ff1662000604575f8181525f805160206200531d83398151915260205260408120805460ff191660011790553391905f80516020620052fd8339815191528180a4600190565b505f90565b6001600160a01b03165f8181527f369bc8f0676cc4770a07fb5d8b5ee4aebf71c66b8831e67c2b455a05ee907d0860205260409020547f6c0757dc3e6b28b2580c03fd9e96c274acf4f99d91fbec9b418fa1d70604ff1c919060ff16620006a457815f52600160205260405f20815f5260205260405f20600160ff1982541617905533915f80516020620052fd8339815191525f80a4600190565b50505f90565b6001600160a01b03165f8181527f595dd01b009321b5010f82016af3a1f11a9b4480d43c1878e9b7d0a17a53ae7760205260409020547f5358bcfd81d1ef3da152b1755e1c3c6739686fa7e83dbcad0071568cc4b73a63919060ff16620006a457815f52600160205260405f20815f5260205260405f20600160ff1982541617905533915f80516020620052fd8339815191525f80a4600190565b6001600160a01b03165f8181527fb9cbbae02fe941283ec0eefd7b121e3bc7f89fae077b27bdd75a7fd4cf1543a860205260409020545f805160206200533d833981519152919060ff16620006a457815f52600160205260405f20815f5260205260405f20600160ff1982541617905533915f80516020620052fd8339815191525f80a460019056fe608080604052600436101561001c575b50361561001a575f80fd5b005b5f905f3560e01c90816301ffc9a7146138875750806305db2f411461384d57806315064c96146120d45780631694505e14613809578063218662051461367d578063248a9ca314613650578063248e06e3146136185780632b38400e146135c45780632c76d7a6146135805780632d1d27441461350a5780632f2ff15d146134cd578063301e1102146131665780633335ce4f1461312d578063341a62e91461311057806336568abe146130c957806339216b3d146130ac5780633a7286f0146130915780633ce4a06c14612d795780633dfaa0aa1461277257806341d002a51461260757806342e5ecaf146122765780634488b652146121ca5780634b4d8ec9146121ae5780634d20d0f8146121695780635a0a3d82146120d95780635c975abb146112835780635f951529146120d4578063669cbca514612022578063670f2a2c14611fe45780636e76fc8f14611fbc5780637443626314611ef857806374fa363114611ebc57806377826a2214611ba05780637e39611014611b5a5780637ff1ce921461194b57806387fb8319146119125780638850be1b146118f657806391278a311461183d57806391d14854146117f35780639ec3ec5b146117d5578063a217fddf146117b9578063a302e29014611359578063a901dd92146112eb578063ad5c4648146112a6578063b187bd2614611283578063b6e02afd14610faa578063c30e659b14610f8d578063c4f84b1c14610ced578063cdad2a1114610ccf578063cf475bc714610c0f578063cf65506514610b43578063d0e5db26146105e5578063d1fee05e1461058e578063d547741f1461054c578063d55be8c61461052f578063d73792a914610512578063d8f90f5d14610434578063e63ab1e9146103f9578063ee402830146103d5578063f09a3aec146103455763fa6869480361000f57346103425780600319360112610342576102db613fc0565b60ff60281b1960035416600355604051600181528160208201527f35d4f1ab2a4d6062ad2e31b11da957dac832dd8d78a0aa6057116f0be65f839c60403392a27f834d1f59288689b29fa7db32c1becb036842bacc16dd285c98982dbbc290dee28180a180f35b80fd5b503461034257806003193601126103425761035e614016565b60025460ff8116156103c35760ff19166002557f5db9ee0a495bf2e6ff9c91a7834c1ba4fdd244a5e8aa4e537bd38aeae4b073aa6020604051338152a1337f926cb4ef9e25dcd7d899f15f60469adf044af85226fcb1ec2127fd26a91ff4968280a280f35b604051638dfc202b60e01b8152600490fd5b5034610342578060031936011261034257602060ff60045460a01c16604051908152f35b503461034257806003193601126103425760206040517f65d7a28e3265b37a6474929f336521b332c1681b933f6cb9f3376673440d862a8152f35b5034610342576040366003190112610342576020906104e3610454613975565b6024359061046d8230336001600160a01b03851661417d565b61ffff60035460101c16917f0000000000000000000000000000000000000000000000000000000000000000917f0000000000000000000000000000000000000000000000000000000000000000917f000000000000000000000000000000000000000000000000000000000000000091614721565b90816104f3575b50604051908152f35b80808061050c9385335af1610506613d63565b50613d92565b5f6104ea565b503461034257806003193601126103425760206040516127108152f35b503461034257806003193601126103425760206040516101f48152f35b50346103425760403660031901126103425761058a60043561056c61398b565b9080845260016020526105856001604086200154614071565b61464e565b5080f35b5034610342576020366003190112610342576020906001600160a01b036105b3613975565b16815260058252604090205461ffff90811680156105d657905b60405191168152f35b508060035460101c16906105cd565b50346103425760e0366003190112610342576044356001600160401b038111610b3f576106169036906004016138ff565b90916106206139e3565b906106296139f4565b926106326139cd565b61063a614111565b60ff60035460281c1680610b11575b610ac05760ff60025416610a885760028210610a76575f198201828111610a625761067861067d918489613b53565b613b63565b6001600160a01b037f00000000000000000000000000000000000000000000000000000000000000008116911603610a50576064354211610a3e5760043515610996576106ca3382614132565b8115610a2a579394929360249360206001600160a01b036106ea83613b63565b16604051968780926370a0823160e01b82523060048301525afa948515610a1f5784956109eb575b5061073260043530336001600160a01b0361072c86613b63565b1661417d565b5f9460249060206001600160a01b0361074a85613b63565b16604051938480926370a0823160e01b82523060048301525afa80156109e05786906109a8575b61077b9250613be2565b9586156109965761079c906003549061ffff60ff8360201c169216906141d7565b946107a78688614221565b936107b28589613be2565b8561097a575b6024359261ffff8b16610964575b6109505791869161083893836107db87613b63565b7f00000000000000000000000000000000000000000000000000000000000000006001600160a01b031693906108149084908690614235565b604051968795869485936318cbafe560e01b85528b60643593339360048801613c6a565b03925af1908115610945578591610923575b5080515f1981019190821161090f579061086391613cf8565b519560243587106108fd576020976001966108f17f4438f37341ada3e4390b8689afc9900737c5097e5eff27ebe20893f3484233f6938a956108a4886145e9565b6108b38b8060a01b0391613b63565b16966040519485948c8060a01b037f0000000000000000000000000000000000000000000000000000000000000000169a3399429560043589613e3f565b0390a455604051908152f35b6040516342301c2360e01b8152600490fd5b634e487b7160e01b86526011600452602486fd5b61093f91503d8087833e6109378183613bc1565b810190613bef565b5f61084a565b6040513d87823e3d90fd5b634e487b7160e01b87526032600452602487fd5b6127106024358c820361ffff16020493506107c6565b5f925061099185338861098c88613b63565b61432c565b6107b8565b604051632ca2f52b60e11b8152600490fd5b506020823d6020116109d8575b816109c260209383613bc1565b810103126109d45761077b9151610771565b5f80fd5b3d91506109b5565b6040513d88823e3d90fd5b9094506020813d602011610a17575b81610a0760209383613bc1565b810103126109d45751935f610712565b3d91506109fa565b6040513d86823e3d90fd5b634e487b7160e01b83526032600452602483fd5b604051631ab7da6b60e01b8152600490fd5b6040516320db826760e01b8152600490fd5b634e487b7160e01b84526011600452602484fd5b6040516335d76ce560e11b8152600490fd5b60405162461bcd60e51b815260206004820152601060248201526f14185d5cd8589b194e881c185d5cd95960821b6044820152606490fd5b60405162461bcd60e51b8152602060048201526024808201527f46756e6374696f6e207265737472696374656420647572696e6720656d657267604482015263656e637960e01b6064820152608490fd5b505f80516020614ad98339815191528352600160205260408320335f5260205260ff60405f20541615610649565b5080fd5b50346103425760203660031901126103425760043560ff8116808203610c0b57610b6b613f65565b60648111610bc6577f4a99057822260ee503a5bf4c1314cb3d970a8fc07348172aed053470feacb7cb916040916004549160ff60a01b9060a01b1660ff60a01b1983161760045560ff83519260a01c1682526020820152a180f35b60405162461bcd60e51b815260206004820152601c60248201527f50657263656e746167652063616e6e6f742065786365656420313030000000006044820152606490fd5b8280fd5b503461034257602036600319011261034257610c29613a16565b90610c32613f65565b61ffff6103e881841611610cab577f247ba3579b3368cf3cff52d2f5eeaf669b68618a7928f602265276cece3548c99192610ca56003549163ffff00008160101b1663ffff00001984161760035560405193849360101c168390602090939293604083019461ffff809216845216910152565b0390a180f35b60405163248c90a560e21b815261ffff841660048201526103e86024820152604490fd5b50346103425780600319360112610342576020600954604051908152f35b503461034257610cfc36613a27565b92949193610d0b969196614111565b60ff60035460281c1680610f5f575b610ac05760ff60025416610a885760028610610a76575f198601868111610ee257610678610d49918884613b53565b6001600160a01b037f00000000000000000000000000000000000000000000000000000000000000008116979116879003610a5057854211610a3e57821561099657610d953386614132565b80159788610f4b57610dd690610dc0856001600160a01b03610db687613b63565b163090339061417d565b6003549061ffff60ff8360201c169216906141d7565b93610de18585614221565b96610dec8886613be2565b9988610f35575b610f2157838b809493610e5f8d94610e40610e0d86613b63565b7f00000000000000000000000000000000000000000000000000000000000000006001600160a01b031697908890614235565b6040516318cbafe560e01b81529e8f9788968795339360048801613c6a565b03925af1968715610f16578897610ef6575b50610e7f90610678856145e9565b9086515f198101908111610ee257926001969492610ece5f80516020614a9983398151915293610eb4610ede9c99978c613cf8565b51956040519485948c8060a01b0316983398429487613d0c565b0390a45560405191829182613a84565b0390f35b634e487b7160e01b89526011600452602489fd5b610e7f919750610f0f903d808b833e6109378183613bc1565b9690610e71565b6040513d8a823e3d90fd5b634e487b7160e01b8b52603260045260248bfd5b505f610f4688338b61098c89613b63565b610df3565b634e487b7160e01b8a52603260045260248afd5b505f80516020614ad98339815191528852600160205260408820335f5260205260ff60405f20541615610d1a565b503461034257806003193601126103425760206040516103e88152f35b50346103425761010036600319011261034257610fc5613975565b610fcd61398b565b9160a4359162ffffff83168303610b3f57610fe6613a05565b610fee6139b7565b94610ff7614111565b60ff60035460281c1680611255575b610ac05760ff60025416610a88576001600160a01b038316158015611244575b611232576084354211610a3e57604435156109965761106c61105461112e9661104f338a614132565b6146c2565b92610dc060443530336001600160a01b03891661417d565b602061107a82604435614221565b9361108785604435613be2565b85611221575b6110c1817f00000000000000000000000000000000000000000000000000000000000000006001600160a01b031689614235565b62ffffff604051926110d284613b8a565b6001600160a01b03898116855287168585015216604080840191909152336060840152608435608084015260a083019190915260643560c083015260e082018890525163414bf38960e01b815297889182919060048301613eab565b0381887f00000000000000000000000000000000000000000000000000000000000000006001600160a01b03165af19586156109455785966111e0575b50908661ffff60019695949361118260209a6145e9565b604051946044358652898b870152604086015216606084015260026080840152858060a01b031660a08301524260c0830152848060a01b031691848060a01b0316905f80516020614a9983398151915260e03392a455604051908152f35b949392919095506020853d602011611219575b8161120060209383613bc1565b810103126109d45793519492939192909190602061116b565b3d91506111f3565b61122d8a33888a61432c565b61108d565b6040516342bcdf7f60e11b8152600490fd5b506001600160a01b03811615611026565b505f80516020614ad98339815191528452600160205260408420335f5260205260ff60405f20541615611006565b5034610342578060031936011261034257602060ff600254166040519015158152f35b50346103425780600319360112610342576040517f00000000000000000000000000000000000000000000000000000000000000006001600160a01b03168152602090f35b503461034257602036600319011261034257600435801515809103610b3f5760207fba500994dffbabeeb9e430f03a978d7b975359a20c5bde3a6ccb5a0c454680c891611336613f65565b6003805464ff00000000191682841b64ff0000000016179055604051908152a180f35b5060c0366003190112610342576024356001600160401b038111610b3f576113859036906004016138ff565b9060643561ffff811681036109d45761139c6139e3565b916113a56139a1565b916113ae614111565b60ff60035460281c168061178b575b610ac05760ff60025416610a885760028510610a76578415611777576113e282613b63565b6001600160a01b037f00000000000000000000000000000000000000000000000000000000000000008116911603610a50576044354211610a3e5734156109965761142d3384614132565b7f00000000000000000000000000000000000000000000000000000000000000006001600160a01b03163b1561177357604051630d0e30db60e41b815286908181600481347f00000000000000000000000000000000000000000000000000000000000000006001600160a01b03165af180156117505761175f575b50506114c5906003549061ffff60ff8360201c169216906141d7565b916114d08334614221565b916114db8334613be2565b958784611680575b611570976004359061ffff891661166a575b7f00000000000000000000000000000000000000000000000000000000000000006001600160a01b03169061154b81837f0000000000000000000000000000000000000000000000000000000000000000614235565b83604051809c819582946338ed173960e01b8452898b60443593339360048801613c6a565b03925af1968715610f1657889761164e575b5086515f199788820191821161163a579061159c91613cf8565b519660043588106108fd576115b0846145e9565b810190808211610ee2579260019694926115f96106787f4438f37341ada3e4390b8689afc9900737c5097e5eff27ebe20893f3484233f69460209c99978b8060a01b0394613b53565b16946108f1896040519384938b8060a01b037f0000000000000000000000000000000000000000000000000000000000000000169833984294343489613e3f565b634e487b7160e01b8a52601160045260248afd5b6116639197503d808a833e6109378183613bc1565b955f611582565b6127106004358a820361ffff16020491506114f5565b507f00000000000000000000000000000000000000000000000000000000000000006001600160a01b03163b1561175b57604051632e1a7d4d60e01b81526004810185905288908181602481837f00000000000000000000000000000000000000000000000000000000000000006001600160a01b03165af180156117505761173c575b50611570976117358533887f000000000000000000000000000000000000000000000000000000000000000061432c565b97506114e3565b6117468291613b77565b610342575f611704565b6040513d84823e3d90fd5b8780fd5b61176890613b77565b61177357855f6114a9565b8580fd5b634e487b7160e01b86526032600452602486fd5b505f80516020614ad98339815191528652600160205260408620335f5260205260ff60405f205416156113bd565b5034610342578060031936011261034257602090604051908152f35b50346103425780600319360112610342576020600c54604051908152f35b503461034257604036600319011261034257604061180f61398b565b9160043581526001602052209060018060a01b03165f52602052602060ff60405f2054166040519015158152f35b503461034257604036600319011261034257611857613975565b6024359061ffff8216918281036109d457611870613f65565b6103e883116118d057506001600160a01b0316808352600560209081526040808520805461ffff1916851790558051928352908201929092527fbb8d055ce927036b435e53d8febaea53f1d7820519040b36b17eca2be2a68b949190a180f35b60405163248c90a560e21b815261ffff9190911660048201526103e86024820152604490fd5b5034610342578060031936011261034257602060405160038152f35b5034610342576020366003190112610342576020906040906001600160a01b0361193a613975565b168152600783522054604051908152f35b50346103425760e036600319011261034257611965613975565b61196d61398b565b6044359160843561197c6139f4565b916119856139cd565b9061198e614111565b60ff60035460281c1680611b2c575b610ac05760ff60025416610a88576001600160a01b038181169490939085158015611b22575b61123257814211610a3e57871561099657611a95916119f38a926119e73388614132565b610dc08b30338c61417d565b936119fe858b614221565b9683611a0a898d613be2565b9189611b11575b611a728360405192611a2284613ba6565b6002845260403660208601378d611a3885613cdb565b5280611a4385613ce8565b9f169e8f90527f0000000000000000000000000000000000000000000000000000000000000000168096614235565b6040516338ed173960e01b81529687958694859333916064359060048701613dd4565b03925af1908115610f16578891611af7575b5080515f19810191908211610ee2579260019694926108f1611adb5f80516020614a998339815191529460209c9997613cf8565b5199611ae6846145e9565b60405193849333978d429487613d0c565b611b0b91503d808a833e6109378183613bc1565b5f611aa7565b611b1d89338c8761432c565b611a11565b50848716156119c3565b505f80516020614ad98339815191528752600160205260408720335f5260205260ff60405f2054161561199d565b5034610342576020366003190112610342576040906001600160a01b03611b7f613975565b16815260066020528180822054916007602052205482519182526020820152f35b50611baa36613aec565b90611bb6959395614111565b60ff60035460281c1680611e8e575b610ac05760ff60025416610a885760028610610a7657851561095057611bea85613b63565b7f000000000000000000000000000000000000000000000000000000000000000095906001600160a01b03808816911603610a5057834211610a3e57341561099657611c363384614132565b6001600160a01b0386163b1561175b57604051630d0e30db60e41b81529188908184600481346001600160a01b038d165af1938415611750578994611e75575b50611c91906003549061ffff60ff8360201c169216906141d7565b95611c9c8734614221565b95611ca78734613be2565b87611ded575b849291611d0591611ce8817f00000000000000000000000000000000000000000000000000000000000000006001600160a01b03168e614235565b6040516338ed173960e01b81529c8d958695339360048801613c6a565b0381837f00000000000000000000000000000000000000000000000000000000000000006001600160a01b03165af1968715610f16578897611dd1575b50611d4c836145e9565b5f19918083019181831161163a579161067891611d6893613b53565b908651908101908111611dbd57610ede9794926001969492610ece611d9b5f80516020614a99833981519152948b613cf8565b516040519384938b8060a01b0316988b8060a01b031697339742933487613d0c565b634e487b7160e01b88526011600452602488fd5b611de69197503d808a833e6109378183613bc1565b955f611d42565b9294506001600160a01b0389163b15611e7157604051632e1a7d4d60e01b81526004810188905294928386602481836001600160a01b038f165af1958615610a1f578b96611e54575b50849291611d0591611e4a89338c8f61432c565b9150919250611cad565b84919650611e6490939293613b77565b610c0b579089945f611e36565b8480fd5b82919450611e8290613b77565b6103425787925f611c76565b505f80516020614ad98339815191528752600160205260408720335f5260205260ff60405f20541615611bc5565b5034610342576020366003190112610342576020906001600160a01b039060409082611ee6613975565b16815260088452205416604051908152f35b5034610342576020366003190112610342576004356001600160401b038111610b3f57611f29903690600401613abf565b611f31614016565b60025460ff8116611faa577fb812697b62490d2c5a74abce400ea5c50759d4dbc1459f062c391cd9952740bf916001611fa49260ff1916176002557f62e78cea01bee320cd4e420270b5ea74000d11b0c9f74754ebdbfc544b05a2586020604051338152a1604051918291339583613e84565b0390a280f35b60405163d93c066560e01b8152600490fd5b503461034257806003193601126103425760206040515f80516020614ad98339815191528152f35b50346103425760203660031901126103425760209061ffff906040906001600160a01b03612010613975565b16815260058452205416604051908152f35b5034610342576020366003190112610342576004356001600160401b038111610b3f576120747fb44ae071c58f65fcb1a6ba0bc5e9db986de9e936eef4749e5d93d253c4be106b913690600401613abf565b9061207d613f12565b6501000000000060ff60281b196003541617600355604051848152600160208201527f35d4f1ab2a4d6062ad2e31b11da957dac832dd8d78a0aa6057116f0be65f839c60403392a2610ca560405192839283613e84565b6138da565b5034610342576020366003190112610342576120f3613975565b6120fb613fc0565b6001600160a01b03818116801561123257600480546001600160a01b031981169092179055604080516001600160a01b0393909216831682529190921660208301527fdc647b6c64710ea9f8fb64dbfade0bc17c93bc5ba3e418927f5dc705540b8589919081908101610ca5565b50346103425780600319360112610342576040517f00000000000000000000000000000000000000000000000000000000000000006001600160a01b03168152602090f35b5034610342578060031936011261034257602060405160018152f35b5034610342576020366003190112610342576121e4613a16565b906121ed613f65565b61ffff8083166101f4811161225257610ca57f2e7c4279000925b8ff0bca0e7109cbc47fc6f6c4edfb831ffe7466cf0af07fa093946003549261ffff19841617600355604051938493168390602090939293604083019461ffff809216845216910152565b604051633c057d7b60e01b815261ffff851660048201526101f46024820152604490fd5b50346103425761010036600319011261034257612291613975565b9061229a61398b565b916122a36139f4565b916122ac613a05565b916122b56139b7565b6122bd614111565b60ff60035460281c16806125d9575b610ac05760ff60025416610a88576001600160a01b0382161580156125c8575b611232576084354211610a3e57604435156109965761230b3382614132565b6040516370a0823160e01b81523060048201526020816024816001600160a01b0387165afa908115610a1f578491612596575b5061235660443530336001600160a01b03871661417d565b6040516370a0823160e01b8152306004820152906020826024816001600160a01b0388165afa8015610945578590612562575b6123939250613be2565b948515610996576123b4906003549061ffff60ff8360201c169216906141d7565b946123bf8682614221565b9161247e856123ce8585613be2565b85612551575b6040516123e081613ba6565b6002815260403660208301376001600160a01b0388166123ff82613cdb565b5261240981613ce8565b6001600160a01b038d1690526064359161ffff8b1661253b575b7f00000000000000000000000000000000000000000000000000000000000000006001600160a01b031691849061245b83858d614235565b6040516338ed173960e01b81529687958694859360843592339260048701613dd4565b03925af19081156109e0578691612521575b5080515f1981019190821161250d57906124a991613cf8565b519660643588106108fd576020986108f189948460019a6124ea7f4438f37341ada3e4390b8689afc9900737c5097e5eff27ebe20893f3484233f6976145e9565b6040519586958d8060a01b03169a8d8060a01b0316993399429560443589613e3f565b634e487b7160e01b87526011600452602487fd5b61253591503d8088833e6109378183613bc1565b5f612490565b6127106064358c820361ffff1602049250612423565b61255d8433888a61432c565b6123d4565b506020823d60201161258e575b8161257c60209383613bc1565b810103126109d4576123939151612389565b3d915061256f565b90506020813d6020116125c0575b816125b160209383613bc1565b810103126109d457515f61233e565b3d91506125a4565b506001600160a01b038616156122ec565b505f80516020614ad98339815191528352600160205260408320335f5260205260ff60405f205416156122cc565b503461034257604036600319011261034257612621613975565b61262961398b565b90612632613f12565b60ff60035460281c1615612760576001600160a01b038281169290831561123257849216806126b2575047908161266b575b5050505080f35b816126a2848080807f1eadb3d0c63d81bf1c4800d2630a76ccdeb92dde6127f48577a5e792233af375976020975af1610506613d63565b604051908152a35f818180612664565b6040516370a0823160e01b815230600482015290925090602082602481865afa91821561094557859261272c575b50816126ed575050505080f35b8161271c7f1eadb3d0c63d81bf1c4800d2630a76ccdeb92dde6127f48577a5e792233af37593602093866145a8565b604051908152a35f808080612664565b9091506020813d602011612758575b8161274860209383613bc1565b810103126109d45751905f6126e0565b3d915061273b565b6040516331453ea160e01b8152600490fd5b5061277c36613aec565b9061278b959395949294614111565b60ff60035460281c1680612d54575b610ac05760ff60025416610a885760028610610a76578515612d40576127bf83613b63565b6001600160a01b037f00000000000000000000000000000000000000000000000000000000000000008116911603610a5057844211610a3e5783156109965734156109965761280e3383614132565b7f00000000000000000000000000000000000000000000000000000000000000006001600160a01b03163b156109d457604051630d0e30db60e41b81525f81600481347f00000000000000000000000000000000000000000000000000000000000000006001600160a01b03165af18015612d3557612d20575b506128a3906003549061ffff60ff8360201c169216906141d7565b93866128b86128b28734614221565b34613be2565b61290c817f00000000000000000000000000000000000000000000000000000000000000006001600160a01b03167f0000000000000000000000000000000000000000000000000000000000000000614235565b6040516370a0823160e01b8152306004820152926020846024817f00000000000000000000000000000000000000000000000000000000000000006001600160a01b03165afa968715612d155789948498612cd6575b50869291612987916040519b8c958695634401edf760e11b8752339360048801613c6a565b0381837f00000000000000000000000000000000000000000000000000000000000000006001600160a01b03165af1958615612ccb578796612caf575b506040516370a0823160e01b8152306004820152936020856024817f00000000000000000000000000000000000000000000000000000000000000006001600160a01b03165afa948515610f16578895612c79575b5084612a2491613be2565b92612a2f8685614221565b948580612b96575b612a4091613be2565b80612ae2575b50612a50836145e9565b5f19918083019181831161163a579161067891612a6c93613b53565b908651908101908111611dbd57610ede9794926001969492610ece612a9f5f80516020614a99833981519152948b613cf8565b51946040519384938b8060a01b0316988b8060a01b037f000000000000000000000000000000000000000000000000000000000000000016983398429487613d0c565b7f00000000000000000000000000000000000000000000000000000000000000006001600160a01b03163b15612b9257604051632e1a7d4d60e01b81526004810182905289908181602481837f00000000000000000000000000000000000000000000000000000000000000006001600160a01b03165af1801561175057612b7e575b50808080612b7894335af1610506613d63565b5f612a46565b612b888291613b77565b610342575f612b65565b8880fd5b507f00000000000000000000000000000000000000000000000000000000000000006001600160a01b03163b15612b9257604051632e1a7d4d60e01b815260048101879052898082602481837f00000000000000000000000000000000000000000000000000000000000000006001600160a01b03165af1918215612c6c578892612c55575b5050612a4091612c4e8633847f000000000000000000000000000000000000000000000000000000000000000061432c565b9150612a37565b612c60919250613b77565b612b925785895f612c1c565b50604051903d90823e3d90fd5b9094506020813d602011612ca7575b81612c9560209383613bc1565b810103126109d4575193612a24612a19565b3d9150612c88565b612cc49196503d8089833e6109378183613bc1565b945f6129c4565b6040513d89823e3d90fd5b935096509092506020823d602011612d0d575b81612cf660209383613bc1565b810103126109d45790519487928992909186612962565b3d9150612ce9565b6040513d85823e3d90fd5b612d2b919750613b77565b5f956128a3612888565b6040513d5f823e3d90fd5b634e487b7160e01b5f52603260045260245ffd5b50335f9081525f80516020614ab9833981519152602052604090205460ff161561279a565b346109d45760c03660031901126109d4576001600160401b036004358181116109d457612daa903690600401613abf565b9190612db46139e3565b92612dbd6139a1565b93612dc6614111565b60ff60035460281c168061306c575b610ac05760ff60025416610a8857602b8210610a50576064354211610a3e576024351561099657612e063386614132565b816014116109d457612e2490610dc06024353033873560601c61417d565b93612e3185602435614221565b91612e3e83602435613be2565b83613057575b612e7c817f00000000000000000000000000000000000000000000000000000000000000006001600160a01b0316873560601c614235565b604051958660a08101109060a0880111176130435760a08601604052612ea182613d48565b612eae6040519182613bc1565b82815236838701116109d457828660208301375f602084830101528652336020870152606435604087015260608601526044356080860152602060405180809763c04b8d5960e01b82528360048301526080612f16825160a0602486015260c4850190613950565b9160018060a01b03868201511660448501526040810151606485015260608101516084850152015160a483015203815f60018060a01b037f0000000000000000000000000000000000000000000000000000000000000000165af1948515612d35575f9561300f575b50612f89826145e9565b601319918183810111612ffb5761ffff602097604051956024358752888a88015260408701521660608501526003608085015260018060a01b031660a08401524260c08401528301013560601c913560601c905f80516020614a9983398151915260e03392a460015f55604051908152f35b634e487b7160e01b5f52601160045260245ffd5b9094506020813d60201161303b575b8161302b60209383613bc1565b810103126109d457519386612f7f565b3d915061301e565b634e487b7160e01b5f52604160045260245ffd5b613067833386883560601c61432c565b612e44565b50335f9081525f80516020614ab9833981519152602052604090205460ff1615612dd5565b346109d4575f3660031901126109d457602060405160028152f35b346109d4575f3660031901126109d4576020600a54604051908152f35b346109d45760403660031901126109d4576130e261398b565b336001600160a01b038216036130fe5761001a9060043561464e565b60405163334bd91960e11b8152600490fd5b346109d4575f3660031901126109d4576020600b54604051908152f35b346109d45760203660031901126109d45760206001600160a01b0380613151613975565b165f526008825260405f205416604051908152f35b346109d45761317436613a27565b90936131839695929396614111565b60ff60035460281c16806134a8575b610ac05760ff60025416610a885760028710610a76575f198701878111612ffb576106786131c1918984613b53565b6001600160a01b037f00000000000000000000000000000000000000000000000000000000000000008116969092918316879003610a5057854211610a3e578715610996578415610996576132163385614132565b8815612d40578261322683613b63565b168530336132339361417d565b6003548060201c60ff169061ffff1661324b926141d7565b936132568582614221565b61325f91613be2565b978861326a83613b63565b847f000000000000000000000000000000000000000000000000000000000000000016918261329892614235565b836132a284613b63565b16996040519788806370a0823160e01b9d8e82523060048301525a92602491602094fa988915612d35575f9961346c575b505f809493926132fd87936040519e8f9788968795632512eca560e11b8752339360048801613c6a565b03925af1968715612d35575f97613450575b505f9460208361331e84613b63565b16996024604051809c819382523060048301525afa988915612d35575f9961341a575b508861334c91613be2565b97613357858a614221565b9586806133fc575b6133699192613be2565b81816133dc575b505061337b846145e9565b612d405761338890613b63565b86515f198101908111612ffb57610ede985f80516020614a99833981519152946133b56133c9938b613cf8565b519660405195869516983398429487613d0c565b0390a460015f5560405191829182613a84565b612d40576133f59033856133ef86613b63565b166145a8565b8981613370565b61336991505f9261341287338461098c89613b63565b92915061335f565b9098506020813d602011613448575b8161343660209383613bc1565b810103126109d457519761334c613341565b3d9150613429565b6134659197503d805f833e6109378183613bc1565b958861330f565b9392919098506020843d6020116134a0575b8161348b60209383613bc1565b810103126109d457925197919290915f6132d3565b3d915061347e565b50335f9081525f80516020614ab9833981519152602052604090205460ff1615613192565b346109d45760403660031901126109d45761001a6004356134ec61398b565b90805f526001602052613505600160405f200154614071565b614093565b346109d4575f3660031901126109d457613522613f12565b60035460ff808260281c16159160ff60281b8360281b169060ff60281b191617806003556040519215835260281c16151560208201527f35d4f1ab2a4d6062ad2e31b11da957dac832dd8d78a0aa6057116f0be65f839c60403392a2005b346109d4575f3660031901126109d4576040517f00000000000000000000000000000000000000000000000000000000000000006001600160a01b03168152602090f35b346109d4575f3660031901126109d45760a060035460ff61ffff60045490604051938181168552838160201c1615156020860152600180871b038316604086015260101c166060840152831c166080820152f35b346109d45760203660031901126109d4576001600160a01b03613639613975565b165f526006602052602060405f2054604051908152f35b346109d45760203660031901126109d4576004355f5260016020526020600160405f200154604051908152f35b346109d45760403660031901126109d4576001600160401b036004358181116109d4576136ae9036906004016138ff565b90916024906024358181116109d4576136cb9036906004016138ff565b94909160019360018701808811612ffb5786036137f7578515612d40576136f183613b63565b90604051966020976bffffffffffffffffffffffff19948560609560601b168a8301526014825260408201908282109082111761304357604052985f97969594939291905b808910613750576040518a815280610ede818d018e613950565b9091929394959697996137648b838a613b53565b3562ffffff811681036109d457898c01808d116137e45760378b938d938a6137946106786137d5968f8c90613b53565b60405196846137ac899651809284808a01910161392f565b85019362ffffff60e81b9060e81b16908401528b1b166023820152036017810184520182613bc1565b9a019796959493929190613736565b85634e487b7160e01b5f5260116004525ffd5b60405163305dd74360e21b8152600490fd5b346109d4575f3660031901126109d4576040517f00000000000000000000000000000000000000000000000000000000000000006001600160a01b03168152602090f35b346109d4575f3660031901126109d45760206040517f6c0757dc3e6b28b2580c03fd9e96c274acf4f99d91fbec9b418fa1d70604ff1c8152f35b346109d45760203660031901126109d4576004359063ffffffff60e01b82168092036109d457602091637965db0b60e01b81149081156138c9575b5015158152f35b6301ffc9a760e01b149050836138c2565b346109d4575f3660031901126109d457602060ff60035460281c166040519015158152f35b9181601f840112156109d4578235916001600160401b0383116109d4576020808501948460051b0101116109d457565b5f5b8381106139405750505f910152565b8181015183820152602001613931565b906020916139698151809281855285808601910161392f565b601f01601f1916010190565b600435906001600160a01b03821682036109d457565b602435906001600160a01b03821682036109d457565b60a435906001600160a01b03821682036109d457565b60e435906001600160a01b03821682036109d457565b60c435906001600160a01b03821682036109d457565b6084359061ffff821682036109d457565b60a4359061ffff821682036109d457565b60c4359061ffff821682036109d457565b6004359061ffff821682036109d457565b60c06003198201126109d4576004359160243591604435906001600160401b0382116109d457613a59916004016138ff565b90916064359060843561ffff811681036109d4579060a4356001600160a01b03811681036109d45790565b60209060206040818301928281528551809452019301915f5b828110613aab575050505090565b835185529381019392810192600101613a9d565b9181601f840112156109d4578235916001600160401b0383116109d457602083818601950101116109d457565b9060a06003198301126109d45760043591602435906001600160401b0382116109d457613b1b916004016138ff565b90916044359060643561ffff811681036109d457906084356001600160a01b03811681036109d45790565b91908201809211612ffb57565b9190811015612d405760051b0190565b356001600160a01b03811681036109d45790565b6001600160401b03811161304357604052565b61010081019081106001600160401b0382111761304357604052565b606081019081106001600160401b0382111761304357604052565b90601f801991011681019081106001600160401b0382111761304357604052565b91908203918211612ffb57565b9060209081838203126109d45782516001600160401b03938482116109d4570181601f820112156109d4578051938411613043578360051b9060405194613c3885840187613bc1565b855283808601928201019283116109d4578301905b828210613c5b575050505090565b81518152908301908301613c4d565b9380919796959760a08601908652602093602087015260a060408701525260c0840192915f5b828110613cb15750505050906080919460018060a01b031660608201520152565b9091929384359060018060a01b0382168092036109d4579081528201938201929190600101613c90565b805115612d405760200190565b805160011015612d405760400190565b8051821015612d405760209160051b010190565b929360c09461ffff929897969360e08601998652602086015260408501521660608301526001608083015260018060a01b031660a08201520152565b6001600160401b03811161304357601f01601f191660200190565b3d15613d8d573d90613d7482613d48565b91613d826040519384613bc1565b82523d5f602084013e565b606090565b15613d9957565b60405162461bcd60e51b8152602060048201526013602482015272115512081d1c985b9cd9995c8819985a5b1959606a1b6044820152606490fd5b9291909594939560a08401908452602091602085015260a060408501528251809152602060c085019301915f5b828110613e225750505050906080919460018060a01b031660608201520152565b83516001600160a01b031685529381019392810192600101613e01565b949260e0969299989794919961010087019a875260208701526040860152606085015261ffff80921660808501521660a083015260018060a01b031660c08201520152565b90918060409360208452816020850152848401375f828201840152601f01601f1916010190565b91909160e06101008201938160018060a01b039182815116855282602082015116602086015262ffffff60408201511660408601528260608201511660608601526080810151608086015260a081015160a086015260c081015160c0860152015116910152565b335f9081525f80516020614ab983398151915260205260409020545f80516020614ad98339815191529060ff1615613f475750565b6044906040519063e2517d3f60e01b82523360048301526024820152fd5b335f9081527f369bc8f0676cc4770a07fb5d8b5ee4aebf71c66b8831e67c2b455a05ee907d0860205260409020547f6c0757dc3e6b28b2580c03fd9e96c274acf4f99d91fbec9b418fa1d70604ff1c9060ff1615613f475750565b335f9081527fa6eef7e35abe7026729641147f7915573c7e97b47efa546f5f6e3230263bcb49602052604090205460ff1615613ff857565b60405163e2517d3f60e01b81523360048201525f6024820152604490fd5b335f9081527fb9cbbae02fe941283ec0eefd7b121e3bc7f89fae077b27bdd75a7fd4cf1543a860205260409020547f65d7a28e3265b37a6474929f336521b332c1681b933f6cb9f3376673440d862a9060ff1615613f475750565b805f52600160205260405f20335f5260205260ff60405f20541615613f475750565b90815f52600160205260405f209060018060a01b031690815f5260205260ff60405f205416155f1461410b57815f52600160205260405f20815f5260205260405f20600160ff1982541617905533917f2f8788117e7eff1d82e926ec794901d17c78024a50270940304540a733656f0d5f80a4600190565b50505f90565b60025f54146141205760025f55565b604051633ee5aeb560e01b8152600490fd5b6001600160a01b03908116918261414857505050565b16811461416b5761dead1461415957565b604051630552cfb760e11b8152600490fd5b6040516341a31fa560e11b8152600490fd5b6040516323b872dd60e01b60208201526001600160a01b03928316602482015292909116604483015260648083019390935291815260a08101918183106001600160401b03841117613043576141d5926040526149bc565b565b911561410b5761ffff821690811561421b57506101f4106141f55790565b604051633c057d7b60e01b815261ffff9190911660048201526101f46024820152604490fd5b91505090565b9061ffff16801561410b5761271091020490565b604051636eb1769f60e11b81523060048201526001600160a01b0383811660248301529190911692602092918381604481885afa8015612d355782915f916142fb575b5010614285575b50505050565b60405163095ea7b360e01b81526001600160a01b039290921660048301526024820152918190839060449082905f905af18015612d35576142c8575b808061427f565b81813d83116142f4575b6142dc8183613bc1565b810103126109d45751801515036109d4575f806142c1565b503d6142d2565b809250858092503d8311614325575b6143148183613bc1565b810103126109d4578190515f614278565b503d61430a565b6143a361ffff60035460101c167f00000000000000000000000000000000000000000000000000000000000000007f00000000000000000000000000000000000000000000000000000000000000007f00000000000000000000000000000000000000000000000000000000000000008686614721565b9081156145a1576004546001600160a01b03868116967ffb18e19e18dd95fb72ff3b7076a1e6ad4762bae959bae5f21b6811b20afea7399460a0949293849392848216925f9290918c158015929061459a57891c60ff165b60ff165f811561458e575090606461441484938661470e565b04946144208686613be2565b965b8761457e575b8680151593848095614577575b61454c575b5050508080614545575b156144fd5750816144f5575b506144d7575b61446283600b54613b46565b600b555b806144cf575b6144b1575b61447d81600954613b46565b60095561448c81600a54613b46565b600a5560405198895260208901526040880152606087015242608087015216941692a4565b8a5f52600660205260405f206144c8828254613b46565b9055614471565b50600161446c565b8b5f52600760205260405f206144ee848254613b46565b9055614456565b90505f614450565b9091508161453c575b5015614466578b7f3da906b9de3cf01afea3f51c19b22dc281e10b7aecd8f64f434691213a24322f6020604051868152a2614466565b9050155f614506565b5081614444565b614557929350614a77565b90868215614566575b8161443a565b61456f91614a77565b505f86614560565b5085614435565b6145888882614a77565b50614428565b94839291508496614422565b505f6143fb565b5050505050565b60405163a9059cbb60e01b60208201526001600160a01b039290921660248301526044808301939093529181526141d5916145e4606483613bc1565b6149bc565b6001600160a01b03811690816145fd575050565b600c54905f198214612ffb5760016146199201600c5533614a16565b6146205750565b6040514281527fdf95fdf88668708a802f70f84ff8e4fc24895b160a56c2c0272c493b58d2d8f560203392a3565b90815f52600160205260405f209060018060a01b031690815f5260205260ff60405f2054165f1461410b57815f52600160205260405f20815f5260205260405f2060ff19815416905533917ff6391f5c32d9c69d2a47ea670b442974b53935d1edc7fd64eb21e047a839171b5f80a4600190565b62ffffff81166101f48114908115614702575b81156146f6575b506146f357604051631b99aa4560e11b8152600490fd5b90565b6127109150145f6146dc565b610bb8811491506146d5565b81810292918115918404141715612ffb57565b909490936001600160a01b038086169493909290831691858314614982578394959660409687519263f7729d4360e01b8452896004850152856024850152610bb8918260448601528b60648601525f60848601528460a4815f60209c8d95165af15f9481614953575b506147eb5750505050505050817fa9ccb599f5014bb62fd847e3bdcd8ddaba80ddf2368efb29807600341011130e9460609260a0959451948552840152820152600c60608201526b145d5bdd194819985a5b195960a21b6080820152a15f90565b61ffff93846127109616860394808611612ffb575f988a976148188f9394614822956148729a169061470e565b0493168095614235565b88519161482e83613b8a565b8a83528686840152898301523060608301524260808301528a60a083015260c08201528560e0820152875195868094819363414bf38960e01b835260048301613eab565b03925af15f9281614924575b506148d9575050817fa9ccb599f5014bb62fd847e3bdcd8ddaba80ddf2368efb29807600341011130e9460609260a0959451948552840152820152600b60608201526a14ddd85c0819985a5b195960aa1b6080820152a15f90565b9350935050813b156109d4575f80926024835180958193632e1a7d4d60e01b83528860048401525af190811561491b5750614912575090565b6146f390613b77565b513d5f823e3d90fd5b9092508381813d831161494c575b61493c8183613bc1565b810103126109d45751915f61487e565b503d614932565b9094508881813d831161497b575b61496b8183613bc1565b810103126109d45751935f61478a565b503d614961565b50509350505050803b156109d4575f8091602460405180948193632e1a7d4d60e01b83528760048401525af18015612d3557614912575090565b905f602091828151910182855af115612d35575f513d614a0d57506001600160a01b0381163b155b6149eb5750565b604051635274afe760e01b81526001600160a01b039091166004820152602490fd5b600114156149e4565b6001600160a01b03918216919082151580614a5f575b614a37575050505f90565b165f52600860205260405f20906bffffffffffffffffffffffff60a01b825416179055600190565b508181165f5260086020528160405f20541615614a2c565b8115614a91575f80809381935af1614a8d613d63565b5090565b505060019056fe140ba2ab25c3ecfe01ea06f7994b9ae44d03f9433a3f8bedb2876dfe94db9bc0595dd01b009321b5010f82016af3a1f11a9b4480d43c1878e9b7d0a17a53ae775358bcfd81d1ef3da152b1755e1c3c6739686fa7e83dbcad0071568cc4b73a63a26469706673582212200b1829c632de11879d22a3220815f0631214a4b4c10c1da1922f5fe245696d1a64736f6c634300081700332f8788117e7eff1d82e926ec794901d17c78024a50270940304540a733656f0da6eef7e35abe7026729641147f7915573c7e97b47efa546f5f6e3230263bcb4965d7a28e3265b37a6474929f336521b332c1681b933f6cb9f3376673440d862a","linkReferences":{}},"methodIdentifiers":{"DEFAULT_ADMIN_ROLE()":"a217fddf","EMERGENCY_ADMIN_ROLE()":"6e76fc8f","FEE_DENOMINATOR()":"d73792a9","FEE_MANAGER_ROLE()":"05db2f41","MAX_FEE_BPS()":"d55be8c6","MAX_SLIPPAGE_TOLERANCE()":"c30e659b","PAUSER_ROLE()":"e63ab1e9","PROTOCOL_TYPE_V2()":"4b4d8ec9","PROTOCOL_TYPE_V3()":"3a7286f0","PROTOCOL_TYPE_V3_MULTI()":"8850be1b","WETH()":"ad5c4648","activateEmergency(string)":"669cbca5","convertTokenToETH(address,uint256)":"d8f90f5d","deactivateEmergency()":"fa686948","emergencyRecoverStuckTokens(address,address)":"41d002a5","encodePath(address[],uint24[])":"21866205","getFeeSettings()":"2b38400e","getReferralPercentage()":"ee402830","getReferrerStats(address)":"7e396110","getRoleAdmin(bytes32)":"248a9ca3","getSlippageToleranceForToken(address)":"d1fee05e","getUserFirstReferrer(address)":"74fa3631","grantRole(bytes32,address)":"2f2ff15d","hasRole(bytes32,address)":"91d14854","isEmergencyActive()":"5f951529","isEmergencyState()":"15064c96","isPaused()":"b187bd26","pauseRouter(string)":"74436263","paused()":"5c975abb","referrerTotalEarnings(address)":"87fb8319","referrerTotalVolume(address)":"248e06e3","renounceRole(bytes32,address)":"36568abe","revokeRole(bytes32,address)":"d547741f","setDefaultFeeBps(uint16)":"4488b652","setFeeBeneficiary(address)":"5a0a3d82","setFeesEnabled(bool)":"a901dd92","setReferralPercentage(uint8)":"cf655065","setSlippageTolerance(uint16)":"cf475bc7","setTokenSlippageTolerance(address,uint16)":"91278a31","supportsInterface(bytes4)":"01ffc9a7","swapETHForExactTokensV2(uint256,address[],uint256,uint16,address)":"3dfaa0aa","swapExactETHForTokensV2(uint256,address[],uint256,uint16,address)":"77826a22","swapExactETHForTokensV2WithTax(uint256,address[],uint256,uint16,uint16,address)":"a302e290","swapExactTokensForETHV2(uint256,uint256,address[],uint256,uint16,address)":"c4f84b1c","swapExactTokensForETHV2WithTax(uint256,uint256,address[],uint256,uint16,uint16,address)":"d0e5db26","swapExactTokensForTokensV2(address,address,uint256,uint256,uint256,uint16,address)":"7ff1ce92","swapExactTokensForTokensV2WithTax(address,address,uint256,uint256,uint256,uint16,uint16,address)":"42e5ecaf","swapExactTokensForTokensV3(address,address,uint256,uint256,uint256,uint24,uint16,address)":"b6e02afd","swapExactTokensForTokensV3MultiHop(bytes,uint256,uint256,uint256,uint16,address)":"3ce4a06c","swapTokensForExactETHV2(uint256,uint256,address[],uint256,uint16,address)":"301e1102","toggleEmergency()":"2d1d2744","tokenSlippageTolerance(address)":"670f2a2c","totalFeesCollectedLifetime()":"cdad2a11","totalFeesDistributedLifetime()":"39216b3d","totalReferralFeesDistributedLifetime()":"341a62e9","totalReferredTransactions()":"9ec3ec5b","uniswapV2Router()":"1694505e","uniswapV3Quoter()":"4d20d0f8","uniswapV3Router()":"2c76d7a6","unpauseRouter()":"f09a3aec","userFirstReferrer(address)":"3335ce4f"},"id":32}